{
  "contractName": "BettingFactory",
  "abi": [
    {
      "inputs": [],
      "stateMutability": "nonpayable",
      "type": "constructor"
    },
    {
      "inputs": [
        {
          "internalType": "uint256",
          "name": "",
          "type": "uint256"
        }
      ],
      "name": "deployedBettings",
      "outputs": [
        {
          "internalType": "address",
          "name": "",
          "type": "address"
        }
      ],
      "stateMutability": "view",
      "type": "function",
      "constant": true
    },
    {
      "inputs": [],
      "name": "owner",
      "outputs": [
        {
          "internalType": "address",
          "name": "",
          "type": "address"
        }
      ],
      "stateMutability": "view",
      "type": "function",
      "constant": true
    },
    {
      "inputs": [
        {
          "internalType": "string",
          "name": "_team1",
          "type": "string"
        },
        {
          "internalType": "string",
          "name": "_team2",
          "type": "string"
        }
      ],
      "name": "createBetting",
      "outputs": [],
      "stateMutability": "nonpayable",
      "type": "function"
    },
    {
      "inputs": [],
      "name": "getBettings",
      "outputs": [
        {
          "internalType": "address[]",
          "name": "",
          "type": "address[]"
        }
      ],
      "stateMutability": "view",
      "type": "function",
      "constant": true
    }
  ],
  "bytecode": "0x608060405234801561001057600080fd5b5033600160006101000a81548173ffffffffffffffffffffffffffffffffffffffff021916908373ffffffffffffffffffffffffffffffffffffffff160217905550612721806100616000396000f3fe608060405234801561001057600080fd5b506004361061004c5760003560e01c80633f6159b41461005157806342c72c04146101a35780638da5cb5b14610202578063f2e743b714610236575b600080fd5b6101a16004803603604081101561006757600080fd5b810190808035906020019064010000000081111561008457600080fd5b82018360208201111561009657600080fd5b803590602001918460018302840111640100000000831117156100b857600080fd5b91908080601f016020809104026020016040519081016040528093929190818152602001838380828437600081840152601f19601f8201169050808301925050505050505091929192908035906020019064010000000081111561011b57600080fd5b82018360208201111561012d57600080fd5b8035906020019184600183028401116401000000008311171561014f57600080fd5b91908080601f016020809104026020016040519081016040528093929190818152602001838380828437600081840152601f19601f82011690508083019250505050505050919291929050505061028e565b005b6101ab6104e1565b6040518080602001828103825283818151815260200191508051906020019060200280838360005b838110156101ee5780820151818401526020810190506101d3565b505050509050019250505060405180910390f35b61020a61056f565b604051808273ffffffffffffffffffffffffffffffffffffffff16815260200191505060405180910390f35b6102626004803603602081101561024c57600080fd5b8101908080359060200190929190505050610595565b604051808273ffffffffffffffffffffffffffffffffffffffff16815260200191505060405180910390f35b600160009054906101000a900473ffffffffffffffffffffffffffffffffffffffff1673ffffffffffffffffffffffffffffffffffffffff163373ffffffffffffffffffffffffffffffffffffffff1614610351576040517f08c379a000000000000000000000000000000000000000000000000000000000815260040180806020018281038252601c8152602001807f6f6e6c79206f776e65722063616e2063656174652062657474696e670000000081525060200191505060405180910390fd5b6000828233604051610362906105d1565b8080602001806020018473ffffffffffffffffffffffffffffffffffffffff168152602001838103835286818151815260200191508051906020019080838360005b838110156103bf5780820151818401526020810190506103a4565b50505050905090810190601f1680156103ec5780820380516001836020036101000a031916815260200191505b50838103825285818151815260200191508051906020019080838360005b8381101561042557808201518184015260208101905061040a565b50505050905090810190601f1680156104525780820380516001836020036101000a031916815260200191505b5095505050505050604051809103906000f080158015610476573d6000803e3d6000fd5b5090506000819080600181540180825580915050600190039060005260206000200160009091909190916101000a81548173ffffffffffffffffffffffffffffffffffffffff021916908373ffffffffffffffffffffffffffffffffffffffff160217905550505050565b6060600080548060200260200160405190810160405280929190818152602001828054801561056557602002820191906000526020600020905b8160009054906101000a900473ffffffffffffffffffffffffffffffffffffffff1673ffffffffffffffffffffffffffffffffffffffff168152602001906001019080831161051b575b5050505050905090565b600160009054906101000a900473ffffffffffffffffffffffffffffffffffffffff1681565b600081815481106105a257fe5b906000526020600020016000915054906101000a900473ffffffffffffffffffffffffffffffffffffffff1681565b61210d806105df8339019056fe60806040526001600460006101000a81548160ff0219169083151502179055503480156200002c57600080fd5b506040516200210d3803806200210d833981810160405260608110156200005257600080fd5b81019080805160405193929190846401000000008211156200007357600080fd5b838201915060208201858111156200008a57600080fd5b8251866001820283011164010000000082111715620000a857600080fd5b8083526020830192505050908051906020019080838360005b83811015620000de578082015181840152602081019050620000c1565b50505050905090810190601f1680156200010c5780820380516001836020036101000a031916815260200191505b50604052602001805160405193929190846401000000008211156200013057600080fd5b838201915060208201858111156200014757600080fd5b82518660018202830111640100000000821117156200016557600080fd5b8083526020830192505050908051906020019080838360005b838110156200019b5780820151818401526020810190506200017e565b50505050905090810190601f168015620001c95780820380516001836020036101000a031916815260200191505b5060405260200180519060200190929190505050806000806101000a81548173ffffffffffffffffffffffffffffffffffffffff021916908373ffffffffffffffffffffffffffffffffffffffff16021790555082600190805190602001906200023592919062000263565b5081600290805190602001906200024e92919062000263565b50612a30420160058190555050505062000309565b828054600181600116156101000203166002900490600052602060002090601f016020900481019282601f10620002a657805160ff1916838001178555620002d7565b82800160010185558215620002d7579182015b82811115620002d6578251825591602001919060010190620002b9565b5b509050620002e69190620002ea565b5090565b5b8082111562000305576000816000905550600101620002eb565b5090565b611df480620003196000396000f3fe6080604052600436106100c25760003560e01c806360c5cc3a1161007f5780638da5cb5b116100595780638da5cb5b1461053d57806399f4a5ab1461057e578063d4e78272146105a9578063e612c0ad146105c0576100c2565b806360c5cc3a146103ef57806385d002421461041d5780638c8d2ede146104ad576100c2565b8063013cf08b146100c757806302fb0c5e146101e95780632836fc15146102165780633197cbb6146102de57806349c2a1a6146103095780635ace4d96146103c4575b600080fd5b3480156100d357600080fd5b50610100600480360360208110156100ea57600080fd5b8101908080359060200190929190505050610650565b604051808873ffffffffffffffffffffffffffffffffffffffff1681526020018773ffffffffffffffffffffffffffffffffffffffff168152602001806020018673ffffffffffffffffffffffffffffffffffffffff1681526020018515158152602001848152602001838152602001828103825287818151815260200191508051906020019080838360005b838110156101a857808201518184015260208101905061018d565b50505050905090810190601f1680156101d55780820380516001836020036101000a031916815260200191505b509850505050505050505060405180910390f35b3480156101f557600080fd5b506101fe610797565b60405180821515815260200191505060405180910390f35b34801561022257600080fd5b506102dc6004803603602081101561023957600080fd5b810190808035906020019064010000000081111561025657600080fd5b82018360208201111561026857600080fd5b8035906020019184600183028401116401000000008311171561028a57600080fd5b91908080601f016020809104026020016040519081016040528093929190818152602001838380828437600081840152601f19601f8201169050808301925050505050505091929192905050506107aa565b005b3480156102ea57600080fd5b506102f3610d89565b6040518082815260200191505060405180910390f35b6103c26004803603602081101561031f57600080fd5b810190808035906020019064010000000081111561033c57600080fd5b82018360208201111561034e57600080fd5b8035906020019184600183028401116401000000008311171561037057600080fd5b91908080601f016020809104026020016040519081016040528093929190818152602001838380828437600081840152601f19601f820116905080830192505050505050509192919290505050610d8f565b005b3480156103d057600080fd5b506103d961122d565b6040518082815260200191505060405180910390f35b61041b6004803603602081101561040557600080fd5b8101908080359060200190929190505050611233565b005b34801561042957600080fd5b506104326116ac565b6040518080602001828103825283818151815260200191508051906020019080838360005b83811015610472578082015181840152602081019050610457565b50505050905090810190601f16801561049f5780820380516001836020036101000a031916815260200191505b509250505060405180910390f35b3480156104b957600080fd5b506104c261174a565b6040518080602001828103825283818151815260200191508051906020019080838360005b838110156105025780820151818401526020810190506104e7565b50505050905090810190601f16801561052f5780820380516001836020036101000a031916815260200191505b509250505060405180910390f35b34801561054957600080fd5b506105526117e8565b604051808273ffffffffffffffffffffffffffffffffffffffff16815260200191505060405180910390f35b34801561058a57600080fd5b5061059361180c565b6040518082815260200191505060405180910390f35b3480156105b557600080fd5b506105be611814565b005b3480156105cc57600080fd5b506105d5611bdc565b6040518080602001828103825283818151815260200191508051906020019080838360005b838110156106155780820151818401526020810190506105fa565b50505050905090810190601f1680156106425780820380516001836020036101000a031916815260200191505b509250505060405180910390f35b60076020528060005260406000206000915090508060000160009054906101000a900473ffffffffffffffffffffffffffffffffffffffff16908060010160009054906101000a900473ffffffffffffffffffffffffffffffffffffffff1690806002018054600181600116156101000203166002900480601f0160208091040260200160405190810160405280929190818152602001828054600181600116156101000203166002900480156107485780601f1061071d57610100808354040283529160200191610748565b820191906000526020600020905b81548152906001019060200180831161072b57829003601f168201915b5050505050908060030160009054906101000a900473ffffffffffffffffffffffffffffffffffffffff16908060030160149054906101000a900460ff16908060040154908060050154905087565b600460009054906101000a900460ff1681565b60008054906101000a900473ffffffffffffffffffffffffffffffffffffffff1673ffffffffffffffffffffffffffffffffffffffff163373ffffffffffffffffffffffffffffffffffffffff161461086b576040517f08c379a00000000000000000000000000000000000000000000000000000000081526004018080602001828103825260138152602001807f6f6e6c79206f776e65722063616e2063616c6c0000000000000000000000000081525060200191505060405180910390fd5b600460009054906101000a900460ff166108ed576040517f08c379a00000000000000000000000000000000000000000000000000000000081526004018080602001828103825260158152602001807f42657474696e67206973206e6f7420616374697665000000000000000000000081525060200191505060405180910390fd5b6001604051808280546001816001161561010002031660029004801561094a5780601f1061092857610100808354040283529182019161094a565b820191906000526020600020905b815481529060010190602001808311610936575b50509150506040518091039020818051906020012014806109da5750600260405180828054600181600116156101000203166002900480156109c35780601f106109a15761010080835404028352918201916109c3565b820191906000526020600020905b8154815290600101906020018083116109af575b505091505060405180910390208180519060200120145b610a4c576040517f08c379a00000000000000000000000000000000000000000000000000000000081526004018080602001828103825260158152602001807f7370656369667920636f727272656374207465616d000000000000000000000081525060200191505060405180910390fd5b6000600190505b6003548111610d5357600015156007600083815260200190815260200160002060030160149054906101000a900460ff1615151415610c8f578180519060200120600760008381526020019081526020016000206002016040518082805460018160011615610100020316600290048015610b055780601f10610ae3576101008083540402835291820191610b05565b820191906000526020600020905b815481529060010190602001808311610af1575b505091505060405180910390201415610bd35760006007600083815260200190815260200160002060000160009054906101000a900473ffffffffffffffffffffffffffffffffffffffff1673ffffffffffffffffffffffffffffffffffffffff16600760008481526020019081526020016000206004015460405180600001905060006040518083038185875af1925050503d8060008114610bc4576040519150601f19603f3d011682016040523d82523d6000602084013e610bc9565b606091505b5050905050610c8a565b60006007600083815260200190815260200160002060010160009054906101000a900473ffffffffffffffffffffffffffffffffffffffff1673ffffffffffffffffffffffffffffffffffffffff16600760008481526020019081526020016000206004015460405180600001905060006040518083038185875af1925050503d8060008114610c7f576040519150601f19603f3d011682016040523d82523d6000602084013e610c84565b606091505b50509050505b610d46565b60006007600083815260200190815260200160002060000160009054906101000a900473ffffffffffffffffffffffffffffffffffffffff1673ffffffffffffffffffffffffffffffffffffffff16600760008481526020019081526020016000206004015460405180600001905060006040518083038185875af1925050503d8060008114610d3b576040519150601f19603f3d011682016040523d82523d6000602084013e610d40565b606091505b50509050505b8080600101915050610a53565b508060069080519060200190610d6a929190611c7a565b506000600460006101000a81548160ff02191690831515021790555050565b60055481565b600554421115610e07576040517f08c379a00000000000000000000000000000000000000000000000000000000081526004018080602001828103825260178152602001807f74696d65206f75742062657474696e6720636c6f73656400000000000000000081525060200191505060405180910390fd5b60016040518082805460018160011615610100020316600290048015610e645780601f10610e42576101008083540402835291820191610e64565b820191906000526020600020905b815481529060010190602001808311610e50575b5050915050604051809103902081805190602001201480610ef4575060026040518082805460018160011615610100020316600290048015610edd5780601f10610ebb576101008083540402835291820191610edd565b820191906000526020600020905b815481529060010190602001808311610ec9575b505091505060405180910390208180519060200120145b610f66576040517f08c379a00000000000000000000000000000000000000000000000000000000081526004018080602001828103825260158152602001807f7370656369667920636f727272656374207465616d000000000000000000000081525060200191505060405180910390fd5b600460009054906101000a900460ff16610fe8576040517f08c379a00000000000000000000000000000000000000000000000000000000081526004018080602001828103825260158152602001807f62657474696e67206973206e6f7420616374697665000000000000000000000081525060200191505060405180910390fd5b600360008154809291906001019190505550611002611cfa565b6040518060e001604052803373ffffffffffffffffffffffffffffffffffffffff168152602001600073ffffffffffffffffffffffffffffffffffffffff168152602001838152602001600073ffffffffffffffffffffffffffffffffffffffff168152602001600115158152602001348152602001600354815250905060003073ffffffffffffffffffffffffffffffffffffffff163460405180600001905060006040518083038185875af1925050503d80600081146110e0576040519150601f19603f3d011682016040523d82523d6000602084013e6110e5565b606091505b505090508160076000600354815260200190815260200160002060008201518160000160006101000a81548173ffffffffffffffffffffffffffffffffffffffff021916908373ffffffffffffffffffffffffffffffffffffffff16021790555060208201518160010160006101000a81548173ffffffffffffffffffffffffffffffffffffffff021916908373ffffffffffffffffffffffffffffffffffffffff16021790555060408201518160020190805190602001906111a9929190611c7a565b5060608201518160030160006101000a81548173ffffffffffffffffffffffffffffffffffffffff021916908373ffffffffffffffffffffffffffffffffffffffff16021790555060808201518160030160146101000a81548160ff02191690831515021790555060a0820151816004015560c08201518160050155905050505050565b60035481565b6005544211156112ab576040517f08c379a00000000000000000000000000000000000000000000000000000000081526004018080602001828103825260178152602001807f74696d65206f75742062657474696e6720636c6f73656400000000000000000081525060200191505060405180910390fd5b600354811115611323576040517f08c379a000000000000000000000000000000000000000000000000000000000815260040180806020018281038252600f8152602001807f696e646578206e6f742076616c6964000000000000000000000000000000000081525060200191505060405180910390fd5b600460009054906101000a900460ff166113a5576040517f08c379a00000000000000000000000000000000000000000000000000000000081526004018080602001828103825260158152602001807f62657474696e67206973206e6f7420616374697665000000000000000000000081525060200191505060405180910390fd5b600115156007600083815260200190815260200160002060030160149054906101000a900460ff16151514611442576040517f08c379a00000000000000000000000000000000000000000000000000000000081526004018080602001828103825260208152602001807f50726f706f73616c206973206e6f7420696e2070656e64696e6720737461746581525060200191505060405180910390fd5b600760008281526020019081526020016000206004015434146114cd576040517f08c379a00000000000000000000000000000000000000000000000000000000081526004018080602001828103825260198152602001807f62696464696e672076616c7565206e6f74206d6174636865640000000000000081525060200191505060405180910390fd5b6007600082815260200190815260200160002060000160009054906101000a900473ffffffffffffffffffffffffffffffffffffffff1673ffffffffffffffffffffffffffffffffffffffff163373ffffffffffffffffffffffffffffffffffffffff161415611588576040517f08c379a0000000000000000000000000000000000000000000000000000000008152600401808060200182810382526026815260200180611d996026913960400191505060405180910390fd5b336007600083815260200190815260200160002060010160006101000a81548173ffffffffffffffffffffffffffffffffffffffff021916908373ffffffffffffffffffffffffffffffffffffffff16021790555060006007600083815260200190815260200160002060030160146101000a81548160ff02191690831515021790555034600760008381526020019081526020016000206004015401600760008381526020019081526020016000206004018190555060003073ffffffffffffffffffffffffffffffffffffffff163460405180600001905060006040518083038185875af1925050503d806000811461169f576040519150601f19603f3d011682016040523d82523d6000602084013e6116a4565b606091505b505090505050565b60068054600181600116156101000203166002900480601f0160208091040260200160405190810160405280929190818152602001828054600181600116156101000203166002900480156117425780601f1061171757610100808354040283529160200191611742565b820191906000526020600020905b81548152906001019060200180831161172557829003601f168201915b505050505081565b60018054600181600116156101000203166002900480601f0160208091040260200160405190810160405280929190818152602001828054600181600116156101000203166002900480156117e05780601f106117b5576101008083540402835291602001916117e0565b820191906000526020600020905b8154815290600101906020018083116117c357829003601f168201915b505050505081565b60008054906101000a900473ffffffffffffffffffffffffffffffffffffffff1681565b600047905090565b60008054906101000a900473ffffffffffffffffffffffffffffffffffffffff1673ffffffffffffffffffffffffffffffffffffffff163373ffffffffffffffffffffffffffffffffffffffff16146118d5576040517f08c379a00000000000000000000000000000000000000000000000000000000081526004018080602001828103825260138152602001807f6f6e6c79206f776e65722063616e2063616c6c0000000000000000000000000081525060200191505060405180910390fd5b600460009054906101000a900460ff16611957576040517f08c379a00000000000000000000000000000000000000000000000000000000081526004018080602001828103825260158152602001807f42657474696e67206973206e6f7420616374697665000000000000000000000081525060200191505060405180910390fd5b6000600190505b6003548111611bd9576007600082815260200190815260200160002060030160149054906101000a900460ff1615611a4b5760006007600083815260200190815260200160002060010160009054906101000a900473ffffffffffffffffffffffffffffffffffffffff1673ffffffffffffffffffffffffffffffffffffffff16600760008481526020019081526020016000206004015460405180600001905060006040518083038185875af1925050503d8060008114611a3c576040519150601f19603f3d011682016040523d82523d6000602084013e611a41565b606091505b5050905050611bcc565b60006007600083815260200190815260200160002060010160009054906101000a900473ffffffffffffffffffffffffffffffffffffffff1673ffffffffffffffffffffffffffffffffffffffff166002600760008581526020019081526020016000206004015481611aba57fe5b0460405180600001905060006040518083038185875af1925050503d8060008114611b01576040519150601f19603f3d011682016040523d82523d6000602084013e611b06565b606091505b5050905060006007600084815260200190815260200160002060000160009054906101000a900473ffffffffffffffffffffffffffffffffffffffff1673ffffffffffffffffffffffffffffffffffffffff166002600760008681526020019081526020016000206004015481611b7957fe5b0460405180600001905060006040518083038185875af1925050503d8060008114611bc0576040519150601f19603f3d011682016040523d82523d6000602084013e611bc5565b606091505b5050905050505b808060010191505061195e565b50565b60028054600181600116156101000203166002900480601f016020809104026020016040519081016040528092919081815260200182805460018160011615610100020316600290048015611c725780601f10611c4757610100808354040283529160200191611c72565b820191906000526020600020905b815481529060010190602001808311611c5557829003601f168201915b505050505081565b828054600181600116156101000203166002900490600052602060002090601f016020900481019282601f10611cbb57805160ff1916838001178555611ce9565b82800160010185558215611ce9579182015b82811115611ce8578251825591602001919060010190611ccd565b5b509050611cf69190611d7b565b5090565b6040518060e00160405280600073ffffffffffffffffffffffffffffffffffffffff168152602001600073ffffffffffffffffffffffffffffffffffffffff16815260200160608152602001600073ffffffffffffffffffffffffffffffffffffffff16815260200160001515815260200160008152602001600081525090565b5b80821115611d94576000816000905550600101611d7c565b509056fe6269642063726561746f722073686f756c64206e6f7420626520626964206163636570746f72a26469706673582212205a025b71cdb8dca15ff97ff5ef5e8e89bfffbb37c3b6abb4a85025bfb9cf8cf764736f6c634300060c0033a26469706673582212206e94dfeb5ee248828ff730e6d62ae6a978c86637b3c57ec0595655d66ab193bc64736f6c634300060c0033",
  "immutableReferences": {},
  "source": "// SPDX-License-Identifier: MIT\npragma solidity ^0.6.0;\n\ncontract BettingFactory {\n    address[] public deployedBettings;\n    address public owner;\n\n    constructor() public {\n        owner = msg.sender;\n    }\n\n    function createBetting(string memory _team1, string memory _team2) public {\n        require(msg.sender == owner, \"only owner can ceate betting\");\n        address newBetting = address(new Betting(_team1, _team2, msg.sender));\n        deployedBettings.push(newBetting);\n    }\n\n    function getBettings() public view returns (address[] memory) {\n        return deployedBettings;\n    }\n}\n\ncontract Betting {\n    address public owner;\n    string public team1;\n    string public team2;\n    uint256 public Index;\n    bool public active = true;\n    uint256 public endTime;\n    string public MatchWinner;\n\n    constructor(\n        string memory _team1,\n        string memory _team2,\n        address creator\n    ) public {\n        owner = creator;\n        team1 = _team1;\n        team2 = _team2;\n        endTime = now + 3 hours;\n    }\n\n    struct Proposal {\n        address bidCreator;\n        address bidAcceptor;\n        string team;\n        address winner;\n        bool pending;\n        uint256 value;\n        uint256 index;\n    }\n\n    modifier onlyOwner() {\n        require(msg.sender == owner, \"only owner can call\");\n        _;\n    }\n    mapping(uint256 => Proposal) public proposals;\n\n    function createProposal(string memory _team) public payable {\n        require(now <= endTime, \"time out betting closed\");\n        require(\n            keccak256(bytes(_team)) == keccak256(bytes(team1)) ||\n                keccak256(bytes(_team)) == keccak256(bytes(team2)),\n            \"specify corrrect team\"\n        );\n        require(active, \"betting is not active\");\n        Index++;\n        Proposal memory newProposal = Proposal({\n            bidCreator: msg.sender,\n            bidAcceptor: address(0),\n            team: _team,\n            pending: true,\n            winner: address(0),\n            value: msg.value,\n            index: Index\n        });\n        (bool success, ) = address(this).call.value(msg.value)(\"\");\n        //require(success,\"tx execution failed\");\n        proposals[Index] = newProposal;\n    }\n\n    function acceptProposal(uint256 _index) public payable {\n        require(now <= endTime, \"time out betting closed\");\n        require(_index <= Index, \"index not valid\");\n        require(active, \"betting is not active\");\n        require(\n            proposals[_index].pending == true,\n            \"Proposal is not in pending state\"\n        );\n        require(\n            msg.value == proposals[_index].value,\n            \"bidding value not matched\"\n        );\n        require(\n            msg.sender != proposals[_index].bidCreator,\n            \"bid creator should not be bid acceptor\"\n        );\n        proposals[_index].bidAcceptor = msg.sender;\n        proposals[_index].pending = false;\n        proposals[_index].value = proposals[_index].value + msg.value;\n\n        (bool success, ) = address(this).call.value(msg.value)(\"\");\n    }\n\n    function winner(string memory _winnerTeam) public onlyOwner {\n        require(active, \"Betting is not active\");\n        require(\n            keccak256(bytes(_winnerTeam)) == keccak256(bytes(team1)) ||\n                keccak256(bytes(_winnerTeam)) == keccak256(bytes(team2)),\n            \"specify corrrect team\"\n        );\n        for (uint256 i = 1; i <= Index; i++) {\n            if (proposals[i].pending == false) {\n                if (\n                    keccak256(bytes(proposals[i].team)) ==\n                    keccak256(bytes(_winnerTeam))\n                ) {\n                    (bool success, ) = proposals[i].bidCreator.call.value(\n                        proposals[i].value\n                    )(\"\");\n                } else {\n                    (bool success, ) = proposals[i].bidAcceptor.call.value(\n                        proposals[i].value\n                    )(\"\");\n                }\n            } else {\n                (bool success, ) = proposals[i].bidCreator.call.value(\n                    proposals[i].value\n                )(\"\");\n            }\n        }\n        MatchWinner = _winnerTeam;\n        active = false;\n    }\n\n    function Draw() public onlyOwner {\n        require(active, \"Betting is not active\");\n        for (uint256 i = 1; i <= Index; i++) {\n            if (proposals[i].pending) {\n                (bool s, ) = proposals[i].bidAcceptor.call.value(\n                    proposals[i].value\n                )(\"\");\n            } else {\n                (bool s1, ) = proposals[i].bidAcceptor.call.value(\n                    proposals[i].value / 2\n                )(\"\");\n                (bool s2, ) = proposals[i].bidCreator.call.value(\n                    proposals[i].value / 2\n                )(\"\");\n            }\n        }\n    }\n\n    function balanceInContract() public view returns (uint256) {\n        return address(this).balance;\n    }\n}\n",
  "sourcePath": "C:\\Users\\HP\\Desktop\\betting\\contracts\\Betting.sol",
  "compiler": {
    "name": "solc",
    "version": "0.6.12+commit.27d51765.Emscripten.clang"
  },
  "schemaVersion": "3.2.0",
  "updatedAt": "2020-07-28T09:17:29.284Z",
  "networkType": "ethereum",
  "devdoc": {
    "kind": "dev",
    "methods": {},
    "version": 1
  },
  "userdoc": {
    "kind": "user",
    "methods": {},
    "version": 1
  }
}